{
  "_format": "hh-sol-artifact-1",
  "contractName": "SastraShop",
  "sourceName": "contracts/shopping.sol",
  "abi": [
    {
      "inputs": [],
      "stateMutability": "payable",
      "type": "constructor"
    },
    {
      "anonymous": false,
      "inputs": [
        {
          "indexed": false,
          "internalType": "uint256",
          "name": "productID",
          "type": "uint256"
        },
        {
          "indexed": false,
          "internalType": "address",
          "name": "buyer",
          "type": "address"
        }
      ],
      "name": "bought",
      "type": "event"
    },
    {
      "anonymous": false,
      "inputs": [
        {
          "indexed": false,
          "internalType": "uint256",
          "name": "productID",
          "type": "uint256"
        }
      ],
      "name": "deleivery",
      "type": "event"
    },
    {
      "anonymous": false,
      "inputs": [
        {
          "indexed": false,
          "internalType": "address",
          "name": "seller",
          "type": "address"
        },
        {
          "indexed": false,
          "internalType": "uint256",
          "name": "rate",
          "type": "uint256"
        },
        {
          "indexed": false,
          "internalType": "string",
          "name": "name",
          "type": "string"
        },
        {
          "indexed": false,
          "internalType": "uint256",
          "name": "productID",
          "type": "uint256"
        }
      ],
      "name": "registered",
      "type": "event"
    },
    {
      "inputs": [
        {
          "internalType": "uint256",
          "name": "_productID",
          "type": "uint256"
        }
      ],
      "name": "buy",
      "outputs": [],
      "stateMutability": "payable",
      "type": "function"
    },
    {
      "inputs": [
        {
          "internalType": "uint256",
          "name": "_productID",
          "type": "uint256"
        }
      ],
      "name": "deleivered",
      "outputs": [],
      "stateMutability": "nonpayable",
      "type": "function"
    },
    {
      "inputs": [],
      "name": "listProducts",
      "outputs": [
        {
          "components": [
            {
              "internalType": "uint256",
              "name": "productID",
              "type": "uint256"
            },
            {
              "internalType": "address payable",
              "name": "seller",
              "type": "address"
            },
            {
              "internalType": "address",
              "name": "buyer",
              "type": "address"
            },
            {
              "internalType": "uint256",
              "name": "rate",
              "type": "uint256"
            },
            {
              "internalType": "string",
              "name": "name",
              "type": "string"
            },
            {
              "internalType": "string",
              "name": "desc",
              "type": "string"
            },
            {
              "internalType": "bool",
              "name": "deleivered",
              "type": "bool"
            }
          ],
          "internalType": "struct SastraShop.Product[]",
          "name": "",
          "type": "tuple[]"
        }
      ],
      "stateMutability": "view",
      "type": "function"
    },
    {
      "inputs": [
        {
          "internalType": "uint256",
          "name": "",
          "type": "uint256"
        }
      ],
      "name": "products",
      "outputs": [
        {
          "internalType": "uint256",
          "name": "productID",
          "type": "uint256"
        },
        {
          "internalType": "address payable",
          "name": "seller",
          "type": "address"
        },
        {
          "internalType": "address",
          "name": "buyer",
          "type": "address"
        },
        {
          "internalType": "uint256",
          "name": "rate",
          "type": "uint256"
        },
        {
          "internalType": "string",
          "name": "name",
          "type": "string"
        },
        {
          "internalType": "string",
          "name": "desc",
          "type": "string"
        },
        {
          "internalType": "bool",
          "name": "deleivered",
          "type": "bool"
        }
      ],
      "stateMutability": "view",
      "type": "function"
    },
    {
      "inputs": [
        {
          "internalType": "uint256",
          "name": "_productID",
          "type": "uint256"
        }
      ],
      "name": "quotePrice",
      "outputs": [
        {
          "internalType": "uint256",
          "name": "",
          "type": "uint256"
        }
      ],
      "stateMutability": "view",
      "type": "function"
    },
    {
      "inputs": [
        {
          "internalType": "uint256",
          "name": "_rate",
          "type": "uint256"
        },
        {
          "internalType": "string",
          "name": "_name",
          "type": "string"
        },
        {
          "internalType": "string",
          "name": "_desc",
          "type": "string"
        }
      ],
      "name": "register",
      "outputs": [],
      "stateMutability": "nonpayable",
      "type": "function"
    },
    {
      "inputs": [],
      "name": "totalProduct",
      "outputs": [
        {
          "internalType": "uint256",
          "name": "",
          "type": "uint256"
        }
      ],
      "stateMutability": "view",
      "type": "function"
    }
  ],
  "bytecode": "0x608060405260018055620000536040518060400160405280600d81526020017f496e697469616c697a65642021000000000000000000000000000000000000008152506200005960201b62000bba1760201c565b620001e3565b620000f981604051602401620000709190620001bf565b6040516020818303038152906040527f41304fac000000000000000000000000000000000000000000000000000000007bffffffffffffffffffffffffffffffffffffffffffffffffffffffff19166020820180517bffffffffffffffffffffffffffffffffffffffffffffffffffffffff8381831617835250505050620000fc60201b60201c565b50565b60008151905060006a636f6e736f6c652e6c6f679050602083016000808483855afa5050505050565b600081519050919050565b600082825260208201905092915050565b60005b838110156200016157808201518184015260208101905062000144565b60008484015250505050565b6000601f19601f8301169050919050565b60006200018b8262000125565b62000197818562000130565b9350620001a981856020860162000141565b620001b4816200016d565b840191505092915050565b60006020820190508181036000830152620001db81846200017e565b905092915050565b611a0b80620001f36000396000f3fe6080604052600436106100705760003560e01c806389bb9b001161004e57806389bb9b001461010c5780638d28dda814610137578063a74e16ed14610160578063d96a094a1461019d57610070565b8063566bceef146100755780636023125b146100a05780637acc0b20146100c9575b600080fd5b34801561008157600080fd5b5061008a6101b9565b6040516100979190610d9c565b60405180910390f35b3480156100ac57600080fd5b506100c760048036038101906100c29190610df7565b6101c5565b005b3480156100d557600080fd5b506100f060048036038101906100eb9190610df7565b6103d1565b6040516101039796959493929190610f31565b60405180910390f35b34801561011857600080fd5b50610121610580565b60405161012e9190611199565b60405180910390f35b34801561014357600080fd5b5061015e600480360381019061015991906112f0565b6107de565b005b34801561016c57600080fd5b5061018760048036038101906101829190610df7565b610a1c565b6040516101949190610d9c565b60405180910390f35b6101b760048036038101906101b29190610df7565b610a5c565b005b60008080549050905090565b3373ffffffffffffffffffffffffffffffffffffffff1660006001836101eb91906113aa565b815481106101fc576101fb6113de565b5b906000526020600020906007020160020160009054906101000a900473ffffffffffffffffffffffffffffffffffffffff1673ffffffffffffffffffffffffffffffffffffffff1614610284576040517f08c379a000000000000000000000000000000000000000000000000000000000815260040161027b90611459565b60405180910390fd5b6001600060018361029591906113aa565b815481106102a6576102a56113de565b5b906000526020600020906007020160060160006101000a81548160ff02191690831515021790555060006001826102dd91906113aa565b815481106102ee576102ed6113de565b5b906000526020600020906007020160010160009054906101000a900473ffffffffffffffffffffffffffffffffffffffff1673ffffffffffffffffffffffffffffffffffffffff166108fc600060018461034891906113aa565b81548110610359576103586113de565b5b9060005260206000209060070201600301549081150290604051600060405180830381858888f19350505050158015610396573d6000803e3d6000fd5b507f15bba9f9ff50af8ef8e8debcbcd7ac342c32db76217ef4384e43ff08d0817be1816040516103c69190610d9c565b60405180910390a150565b600081815481106103e157600080fd5b90600052602060002090600702016000915090508060000154908060010160009054906101000a900473ffffffffffffffffffffffffffffffffffffffff16908060020160009054906101000a900473ffffffffffffffffffffffffffffffffffffffff169080600301549080600401805461045c906114a8565b80601f0160208091040260200160405190810160405280929190818152602001828054610488906114a8565b80156104d55780601f106104aa576101008083540402835291602001916104d5565b820191906000526020600020905b8154815290600101906020018083116104b857829003601f168201915b5050505050908060050180546104ea906114a8565b80601f0160208091040260200160405190810160405280929190818152602001828054610516906114a8565b80156105635780601f1061053857610100808354040283529160200191610563565b820191906000526020600020905b81548152906001019060200180831161054657829003601f168201915b5050505050908060060160009054906101000a900460ff16905087565b60606000805480602002602001604051908101604052809291908181526020016000905b828210156107d557838290600052602060002090600702016040518060e0016040529081600082015481526020016001820160009054906101000a900473ffffffffffffffffffffffffffffffffffffffff1673ffffffffffffffffffffffffffffffffffffffff1673ffffffffffffffffffffffffffffffffffffffff1681526020016002820160009054906101000a900473ffffffffffffffffffffffffffffffffffffffff1673ffffffffffffffffffffffffffffffffffffffff1673ffffffffffffffffffffffffffffffffffffffff16815260200160038201548152602001600482018054610697906114a8565b80601f01602080910402602001604051908101604052809291908181526020018280546106c3906114a8565b80156107105780601f106106e557610100808354040283529160200191610710565b820191906000526020600020905b8154815290600101906020018083116106f357829003601f168201915b50505050508152602001600582018054610729906114a8565b80601f0160208091040260200160405190810160405280929190818152602001828054610755906114a8565b80156107a25780601f10610777576101008083540402835291602001916107a2565b820191906000526020600020905b81548152906001019060200180831161078557829003601f168201915b505050505081526020016006820160009054906101000a900460ff161515151581525050815260200190600101906105a4565b50505050905090565b60008311610821576040517f08c379a000000000000000000000000000000000000000000000000000000000815260040161081890611525565b60405180910390fd5b610829610d18565b60015481600001818152505033816020019073ffffffffffffffffffffffffffffffffffffffff16908173ffffffffffffffffffffffffffffffffffffffff168152505060018461087a9190611545565b816060018181525050818160a00181905250828160800181905250600160008154809291906108a890611587565b919050555060008190806001815401808255809150506001900390600052602060002090600702016000909190919091506000820151816000015560208201518160010160006101000a81548173ffffffffffffffffffffffffffffffffffffffff021916908373ffffffffffffffffffffffffffffffffffffffff16021790555060408201518160020160006101000a81548173ffffffffffffffffffffffffffffffffffffffff021916908373ffffffffffffffffffffffffffffffffffffffff160217905550606082015181600301556080820151816004019081610990919061177b565b5060a08201518160050190816109a6919061177b565b5060c08201518160060160006101000a81548160ff02191690831515021790555050507f8acbf2c1e7ca62e4c31f4e0dc5be56aa7debd77ca8621ff219fa63a01e3cb1788160200151826060015183608001518460000151604051610a0e94939291906118a2565b60405180910390a150505050565b6000806000600184610a2e91906113aa565b81548110610a3f57610a3e6113de565b5b906000526020600020906007020160030154905080915050919050565b610a9b6040518060400160405280600681526020017f6d736776616c000000000000000000000000000000000000000000000000000081525034610c53565b346000600183610aab91906113aa565b81548110610abc57610abb6113de565b5b90600052602060002090600702016003015414610b0e576040517f08c379a0000000000000000000000000000000000000000000000000000000008152600401610b059061193a565b60405180910390fd5b336000600183610b1e91906113aa565b81548110610b2f57610b2e6113de565b5b906000526020600020906007020160020160006101000a81548173ffffffffffffffffffffffffffffffffffffffff021916908373ffffffffffffffffffffffffffffffffffffffff1602179055507f2c9b5e9655a41ab13c5183c231239df125ecbd546a947624c913cfd43094906e8133604051610baf92919061195a565b60405180910390a150565b610c5081604051602401610bce9190611983565b6040516020818303038152906040527f41304fac000000000000000000000000000000000000000000000000000000007bffffffffffffffffffffffffffffffffffffffffffffffffffffffff19166020820180517bffffffffffffffffffffffffffffffffffffffffffffffffffffffff8381831617835250505050610cef565b50565b610ceb8282604051602401610c699291906119a5565b6040516020818303038152906040527fb60e72cc000000000000000000000000000000000000000000000000000000007bffffffffffffffffffffffffffffffffffffffffffffffffffffffff19166020820180517bffffffffffffffffffffffffffffffffffffffffffffffffffffffff8381831617835250505050610cef565b5050565b60008151905060006a636f6e736f6c652e6c6f679050602083016000808483855afa5050505050565b6040518060e0016040528060008152602001600073ffffffffffffffffffffffffffffffffffffffff168152602001600073ffffffffffffffffffffffffffffffffffffffff1681526020016000815260200160608152602001606081526020016000151581525090565b6000819050919050565b610d9681610d83565b82525050565b6000602082019050610db16000830184610d8d565b92915050565b6000604051905090565b600080fd5b600080fd5b610dd481610d83565b8114610ddf57600080fd5b50565b600081359050610df181610dcb565b92915050565b600060208284031215610e0d57610e0c610dc1565b5b6000610e1b84828501610de2565b91505092915050565b600073ffffffffffffffffffffffffffffffffffffffff82169050919050565b6000610e4f82610e24565b9050919050565b610e5f81610e44565b82525050565b6000610e7082610e24565b9050919050565b610e8081610e65565b82525050565b600081519050919050565b600082825260208201905092915050565b60005b83811015610ec0578082015181840152602081019050610ea5565b60008484015250505050565b6000601f19601f8301169050919050565b6000610ee882610e86565b610ef28185610e91565b9350610f02818560208601610ea2565b610f0b81610ecc565b840191505092915050565b60008115159050919050565b610f2b81610f16565b82525050565b600060e082019050610f46600083018a610d8d565b610f536020830189610e56565b610f606040830188610e77565b610f6d6060830187610d8d565b8181036080830152610f7f8186610edd565b905081810360a0830152610f938185610edd565b9050610fa260c0830184610f22565b98975050505050505050565b600081519050919050565b600082825260208201905092915050565b6000819050602082019050919050565b610fe381610d83565b82525050565b610ff281610e44565b82525050565b61100181610e65565b82525050565b600082825260208201905092915050565b600061102382610e86565b61102d8185611007565b935061103d818560208601610ea2565b61104681610ecc565b840191505092915050565b61105a81610f16565b82525050565b600060e0830160008301516110786000860182610fda565b50602083015161108b6020860182610fe9565b50604083015161109e6040860182610ff8565b5060608301516110b16060860182610fda565b50608083015184820360808601526110c98282611018565b91505060a083015184820360a08601526110e38282611018565b91505060c08301516110f860c0860182611051565b508091505092915050565b600061110f8383611060565b905092915050565b6000602082019050919050565b600061112f82610fae565b6111398185610fb9565b93508360208202850161114b85610fca565b8060005b8581101561118757848403895281516111688582611103565b945061117383611117565b925060208a0199505060018101905061114f565b50829750879550505050505092915050565b600060208201905081810360008301526111b38184611124565b905092915050565b600080fd5b600080fd5b7f4e487b7100000000000000000000000000000000000000000000000000000000600052604160045260246000fd5b6111fd82610ecc565b810181811067ffffffffffffffff8211171561121c5761121b6111c5565b5b80604052505050565b600061122f610db7565b905061123b82826111f4565b919050565b600067ffffffffffffffff82111561125b5761125a6111c5565b5b61126482610ecc565b9050602081019050919050565b82818337600083830152505050565b600061129361128e84611240565b611225565b9050828152602081018484840111156112af576112ae6111c0565b5b6112ba848285611271565b509392505050565b600082601f8301126112d7576112d66111bb565b5b81356112e7848260208601611280565b91505092915050565b60008060006060848603121561130957611308610dc1565b5b600061131786828701610de2565b935050602084013567ffffffffffffffff81111561133857611337610dc6565b5b611344868287016112c2565b925050604084013567ffffffffffffffff81111561136557611364610dc6565b5b611371868287016112c2565b9150509250925092565b7f4e487b7100000000000000000000000000000000000000000000000000000000600052601160045260246000fd5b60006113b582610d83565b91506113c083610d83565b92508282039050818111156113d8576113d761137b565b5b92915050565b7f4e487b7100000000000000000000000000000000000000000000000000000000600052603260045260246000fd5b7f6f6e6c79206275796572732063616e2061636365737300000000000000000000600082015250565b6000611443601683610e91565b915061144e8261140d565b602082019050919050565b6000602082019050818103600083015261147281611436565b9050919050565b7f4e487b7100000000000000000000000000000000000000000000000000000000600052602260045260246000fd5b600060028204905060018216806114c057607f821691505b6020821081036114d3576114d2611479565b5b50919050565b7f656e7465722076616c6964207072696365000000000000000000000000000000600082015250565b600061150f601183610e91565b915061151a826114d9565b602082019050919050565b6000602082019050818103600083015261153e81611502565b9050919050565b600061155082610d83565b915061155b83610d83565b925082820261156981610d83565b915082820484148315176115805761157f61137b565b5b5092915050565b600061159282610d83565b91507fffffffffffffffffffffffffffffffffffffffffffffffffffffffffffffffff82036115c4576115c361137b565b5b600182019050919050565b60008190508160005260206000209050919050565b60006020601f8301049050919050565b600082821b905092915050565b6000600883026116317fffffffffffffffffffffffffffffffffffffffffffffffffffffffffffffffff826115f4565b61163b86836115f4565b95508019841693508086168417925050509392505050565b6000819050919050565b600061167861167361166e84610d83565b611653565b610d83565b9050919050565b6000819050919050565b6116928361165d565b6116a661169e8261167f565b848454611601565b825550505050565b600090565b6116bb6116ae565b6116c6818484611689565b505050565b5b818110156116ea576116df6000826116b3565b6001810190506116cc565b5050565b601f82111561172f57611700816115cf565b611709846115e4565b81016020851015611718578190505b61172c611724856115e4565b8301826116cb565b50505b505050565b600082821c905092915050565b600061175260001984600802611734565b1980831691505092915050565b600061176b8383611741565b9150826002028217905092915050565b61178482610e86565b67ffffffffffffffff81111561179d5761179c6111c5565b5b6117a782546114a8565b6117b28282856116ee565b600060209050601f8311600181146117e557600084156117d3578287015190505b6117dd858261175f565b865550611845565b601f1984166117f3866115cf565b60005b8281101561181b578489015182556001820191506020850194506020810190506117f6565b868310156118385784890151611834601f891682611741565b8355505b6001600288020188555050505b505050505050565b600061186861186361185e84610e24565b611653565b610e24565b9050919050565b600061187a8261184d565b9050919050565b600061188c8261186f565b9050919050565b61189c81611881565b82525050565b60006080820190506118b76000830187611893565b6118c46020830186610d8d565b81810360408301526118d68185610edd565b90506118e56060830184610d8d565b95945050505050565b7f456e746572207468652061637475616c20707269636500000000000000000000600082015250565b6000611924601683610e91565b915061192f826118ee565b602082019050919050565b6000602082019050818103600083015261195381611917565b9050919050565b600060408201905061196f6000830185610d8d565b61197c6020830184610e77565b9392505050565b6000602082019050818103600083015261199d8184610edd565b905092915050565b600060408201905081810360008301526119bf8185610edd565b90506119ce6020830184610d8d565b939250505056fea2646970667358221220643a55b22e673a0f9e10a5a2a6fec213761dadcdb7bc48e5d8e37c1744e7136064736f6c63430008120033",
  "linkReferences": {},
  "deployedLinkReferences": {}
}